:020000020000FC
:100000000FEF0DBF08E00EBF112700E104B93FE17B
:1000100034B95698579828E274E14F9BFECF4E9B17
:1000200008C02C9A35D016D033D02C9831D021D09E
:10003000F4CF2C9A2DD01DD02BD02C9829D00AD0BB
:10004000ECCF88EC90E08A95F1F72A95D1F728E279
:10005000000008956AEF289AF4DF299AF2DF2A9ABD
:10006000F0DF2B9AEEDF6A95B1F77A9599F774E194
:1000700008956AEF2B9AE5DF2A9AE3DF299AE1DFF8
:10008000289ADFDF6A95B1F77A9599F774E10895B8
:100090005AE0D7DF5A95E9F74A95D1F755E0089528
:00000001FF
