:020000020000FC
:100000000FEF0DBF08E00EBF112700E104B93FE17B
:1000100034B956985798549A28E274E14F9BFECF12
:100020004E9B08C05C9A3DD016D03BD05C9839D02E
:1000300025D0F4CF5C9A35D021D033D05C9831D024
:100040000AD0ECCF88EC90E08A95F1F72A95D1F7A9
:1000500028E2000008956AEF31E035B9F3DF32E0BD
:1000600035B9F0DF34E035B9EDDF38E035B9EADF36
:100070006A9591F77A9579F774E108956AEF38E017
:1000800035B9E0DF34E035B9DDDF32E035B9DADF4C
:1000900031E035B9D7DF6A9591F77A9579F774E150
:1000A00008955AE0CFDF5A95E9F74A95D1F755E020
:0200B0000895B1
:00000001FF
